:100000004BC0000059C0000057C0000069C000008C
:1000100053C0000051C000004FC000004DC00000A0
:100020004BC0000049C0000047C0000045C00000B0
:1000300043C0000041C000003FC000003DC00000C0
:100040003BC0000039C0000037C0000035C00000D0
:1000500033C0000031C000002FC000002DC00000E0
:100060002BC0000029C0000027C0000025C00000F0
:1000700023C0000021C000001FC000001DC0000000
:100080001BC0000019C0000017C0000015C0000010
:1000900013C0000011C0000011241FBECFEFD0E23A
:1000A000DEBFCDBF21E0A0E0B1E001C01D92A430D1
:1000B000B207E1F714D01EC0A3CF80E8809361009F
:1000C00081E0809361007894809102019091030116
:1000D0000197D1F78091000190910101F5CFEDDFFB
:1000E0001F920F920FB60F9211240F900FBE0F9018
:0800F0001F901895F894FFCF52
:00000001FF
