:100000004BC0000059C0000057C0000088C000006D
:1000100053C0000051C000004FC000004DC00000A0
:100020004BC0000049C0000047C0000045C00000B0
:1000300043C0000041C000003FC000003DC00000C0
:100040003BC0000039C0000037C0000035C00000D0
:1000500033C0000031C000002FC000002DC00000E0
:100060002BC0000029C0000027C0000025C00000F0
:1000700023C0000021C000001FC000001DC0000000
:100080001BC0000019C0000017C0000015C0000010
:1000900013C0000011C0000011241FBECFEFD0E23A
:1000A000DEBFCDBF21E0A0E0B1E001C01D92A230D3
:1000B000B207E1F733D047C0A3CF809A889A08955A
:1000C00052985A9AEA98E9E6F0E08081806180834C
:1000D00080818F7D8083EA9A0895019711F4889A30
:1000E00008958898089580E88093610081E0809366
:1000F0006100E3DFE5DF78948091000190910101D8
:100100000197D1F7F89489B182FB882780F990E0B4
:10011000E4DF1092010110920001EDCFE4DF1F92A5
:100120000F920FB60F9211248F939F9381E090E06E
:1001300090930101809300019F918F910F900FBECA
:0A0140000F901F901895F894FFCF60
:00000001FF
